{
  "_format": "hh-sol-artifact-1",
  "contractName": "NFTMarketplace",
  "sourceName": "contracts/NFTMarketplace.sol",
  "abi": [
    {
      "inputs": [],
      "stateMutability": "nonpayable",
      "type": "constructor"
    },
    {
      "anonymous": false,
      "inputs": [
        {
          "indexed": true,
          "internalType": "address",
          "name": "owner",
          "type": "address"
        },
        {
          "indexed": true,
          "internalType": "address",
          "name": "approved",
          "type": "address"
        },
        {
          "indexed": true,
          "internalType": "uint256",
          "name": "tokenId",
          "type": "uint256"
        }
      ],
      "name": "Approval",
      "type": "event"
    },
    {
      "anonymous": false,
      "inputs": [
        {
          "indexed": true,
          "internalType": "address",
          "name": "owner",
          "type": "address"
        },
        {
          "indexed": true,
          "internalType": "address",
          "name": "operator",
          "type": "address"
        },
        {
          "indexed": false,
          "internalType": "bool",
          "name": "approved",
          "type": "bool"
        }
      ],
      "name": "ApprovalForAll",
      "type": "event"
    },
    {
      "anonymous": false,
      "inputs": [
        {
          "indexed": true,
          "internalType": "uint256",
          "name": "tokenId",
          "type": "uint256"
        },
        {
          "indexed": false,
          "internalType": "address",
          "name": "seller",
          "type": "address"
        },
        {
          "indexed": false,
          "internalType": "address",
          "name": "owner",
          "type": "address"
        },
        {
          "indexed": false,
          "internalType": "uint256",
          "name": "price",
          "type": "uint256"
        },
        {
          "indexed": false,
          "internalType": "bool",
          "name": "sold",
          "type": "bool"
        }
      ],
      "name": "MarketItemCreated",
      "type": "event"
    },
    {
      "anonymous": false,
      "inputs": [
        {
          "indexed": true,
          "internalType": "address",
          "name": "previousOwner",
          "type": "address"
        },
        {
          "indexed": true,
          "internalType": "address",
          "name": "newOwner",
          "type": "address"
        }
      ],
      "name": "OwnershipTransferred",
      "type": "event"
    },
    {
      "anonymous": false,
      "inputs": [
        {
          "indexed": true,
          "internalType": "address",
          "name": "from",
          "type": "address"
        },
        {
          "indexed": true,
          "internalType": "address",
          "name": "to",
          "type": "address"
        },
        {
          "indexed": true,
          "internalType": "uint256",
          "name": "tokenId",
          "type": "uint256"
        }
      ],
      "name": "Transfer",
      "type": "event"
    },
    {
      "inputs": [
        {
          "internalType": "address",
          "name": "to",
          "type": "address"
        },
        {
          "internalType": "uint256",
          "name": "tokenId",
          "type": "uint256"
        }
      ],
      "name": "approve",
      "outputs": [],
      "stateMutability": "nonpayable",
      "type": "function"
    },
    {
      "inputs": [
        {
          "internalType": "address",
          "name": "owner",
          "type": "address"
        }
      ],
      "name": "balanceOf",
      "outputs": [
        {
          "internalType": "uint256",
          "name": "",
          "type": "uint256"
        }
      ],
      "stateMutability": "view",
      "type": "function"
    },
    {
      "inputs": [
        {
          "internalType": "uint256",
          "name": "tokenId",
          "type": "uint256"
        }
      ],
      "name": "createMarketSale",
      "outputs": [],
      "stateMutability": "payable",
      "type": "function"
    },
    {
      "inputs": [
        {
          "internalType": "string",
          "name": "tokenURI",
          "type": "string"
        },
        {
          "internalType": "uint256",
          "name": "price",
          "type": "uint256"
        }
      ],
      "name": "createToken",
      "outputs": [
        {
          "internalType": "uint256",
          "name": "",
          "type": "uint256"
        }
      ],
      "stateMutability": "payable",
      "type": "function"
    },
    {
      "inputs": [],
      "name": "fetchItemsListed",
      "outputs": [
        {
          "components": [
            {
              "internalType": "uint256",
              "name": "tokenId",
              "type": "uint256"
            },
            {
              "internalType": "address payable",
              "name": "seller",
              "type": "address"
            },
            {
              "internalType": "address payable",
              "name": "owner",
              "type": "address"
            },
            {
              "internalType": "uint256",
              "name": "price",
              "type": "uint256"
            },
            {
              "internalType": "bool",
              "name": "sold",
              "type": "bool"
            }
          ],
          "internalType": "struct NFTMarketplace.MarketItem[]",
          "name": "",
          "type": "tuple[]"
        }
      ],
      "stateMutability": "view",
      "type": "function"
    },
    {
      "inputs": [],
      "name": "fetchMarketItems",
      "outputs": [
        {
          "components": [
            {
              "internalType": "uint256",
              "name": "tokenId",
              "type": "uint256"
            },
            {
              "internalType": "address payable",
              "name": "seller",
              "type": "address"
            },
            {
              "internalType": "address payable",
              "name": "owner",
              "type": "address"
            },
            {
              "internalType": "uint256",
              "name": "price",
              "type": "uint256"
            },
            {
              "internalType": "bool",
              "name": "sold",
              "type": "bool"
            }
          ],
          "internalType": "struct NFTMarketplace.MarketItem[]",
          "name": "",
          "type": "tuple[]"
        }
      ],
      "stateMutability": "view",
      "type": "function"
    },
    {
      "inputs": [],
      "name": "fetchMyItems",
      "outputs": [
        {
          "components": [
            {
              "internalType": "uint256",
              "name": "tokenId",
              "type": "uint256"
            },
            {
              "internalType": "address payable",
              "name": "seller",
              "type": "address"
            },
            {
              "internalType": "address payable",
              "name": "owner",
              "type": "address"
            },
            {
              "internalType": "uint256",
              "name": "price",
              "type": "uint256"
            },
            {
              "internalType": "bool",
              "name": "sold",
              "type": "bool"
            }
          ],
          "internalType": "struct NFTMarketplace.MarketItem[]",
          "name": "",
          "type": "tuple[]"
        }
      ],
      "stateMutability": "view",
      "type": "function"
    },
    {
      "inputs": [
        {
          "internalType": "uint256",
          "name": "tokenId",
          "type": "uint256"
        }
      ],
      "name": "getApproved",
      "outputs": [
        {
          "internalType": "address",
          "name": "",
          "type": "address"
        }
      ],
      "stateMutability": "view",
      "type": "function"
    },
    {
      "inputs": [],
      "name": "getListingPrice",
      "outputs": [
        {
          "internalType": "uint256",
          "name": "",
          "type": "uint256"
        }
      ],
      "stateMutability": "view",
      "type": "function"
    },
    {
      "inputs": [
        {
          "internalType": "address",
          "name": "owner",
          "type": "address"
        },
        {
          "internalType": "address",
          "name": "operator",
          "type": "address"
        }
      ],
      "name": "isApprovedForAll",
      "outputs": [
        {
          "internalType": "bool",
          "name": "",
          "type": "bool"
        }
      ],
      "stateMutability": "view",
      "type": "function"
    },
    {
      "inputs": [],
      "name": "name",
      "outputs": [
        {
          "internalType": "string",
          "name": "",
          "type": "string"
        }
      ],
      "stateMutability": "view",
      "type": "function"
    },
    {
      "inputs": [],
      "name": "owner",
      "outputs": [
        {
          "internalType": "address",
          "name": "",
          "type": "address"
        }
      ],
      "stateMutability": "view",
      "type": "function"
    },
    {
      "inputs": [
        {
          "internalType": "uint256",
          "name": "tokenId",
          "type": "uint256"
        }
      ],
      "name": "ownerOf",
      "outputs": [
        {
          "internalType": "address",
          "name": "",
          "type": "address"
        }
      ],
      "stateMutability": "view",
      "type": "function"
    },
    {
      "inputs": [],
      "name": "renounceOwnership",
      "outputs": [],
      "stateMutability": "nonpayable",
      "type": "function"
    },
    {
      "inputs": [
        {
          "internalType": "uint256",
          "name": "tokenId",
          "type": "uint256"
        },
        {
          "internalType": "uint256",
          "name": "price",
          "type": "uint256"
        }
      ],
      "name": "resellToken",
      "outputs": [],
      "stateMutability": "payable",
      "type": "function"
    },
    {
      "inputs": [
        {
          "internalType": "address",
          "name": "from",
          "type": "address"
        },
        {
          "internalType": "address",
          "name": "to",
          "type": "address"
        },
        {
          "internalType": "uint256",
          "name": "tokenId",
          "type": "uint256"
        }
      ],
      "name": "safeTransferFrom",
      "outputs": [],
      "stateMutability": "nonpayable",
      "type": "function"
    },
    {
      "inputs": [
        {
          "internalType": "address",
          "name": "from",
          "type": "address"
        },
        {
          "internalType": "address",
          "name": "to",
          "type": "address"
        },
        {
          "internalType": "uint256",
          "name": "tokenId",
          "type": "uint256"
        },
        {
          "internalType": "bytes",
          "name": "data",
          "type": "bytes"
        }
      ],
      "name": "safeTransferFrom",
      "outputs": [],
      "stateMutability": "nonpayable",
      "type": "function"
    },
    {
      "inputs": [
        {
          "internalType": "address",
          "name": "operator",
          "type": "address"
        },
        {
          "internalType": "bool",
          "name": "approved",
          "type": "bool"
        }
      ],
      "name": "setApprovalForAll",
      "outputs": [],
      "stateMutability": "nonpayable",
      "type": "function"
    },
    {
      "inputs": [
        {
          "internalType": "bytes4",
          "name": "interfaceId",
          "type": "bytes4"
        }
      ],
      "name": "supportsInterface",
      "outputs": [
        {
          "internalType": "bool",
          "name": "",
          "type": "bool"
        }
      ],
      "stateMutability": "view",
      "type": "function"
    },
    {
      "inputs": [],
      "name": "symbol",
      "outputs": [
        {
          "internalType": "string",
          "name": "",
          "type": "string"
        }
      ],
      "stateMutability": "view",
      "type": "function"
    },
    {
      "inputs": [
        {
          "internalType": "uint256",
          "name": "tokenId",
          "type": "uint256"
        }
      ],
      "name": "tokenURI",
      "outputs": [
        {
          "internalType": "string",
          "name": "",
          "type": "string"
        }
      ],
      "stateMutability": "view",
      "type": "function"
    },
    {
      "inputs": [
        {
          "internalType": "address",
          "name": "from",
          "type": "address"
        },
        {
          "internalType": "address",
          "name": "to",
          "type": "address"
        },
        {
          "internalType": "uint256",
          "name": "tokenId",
          "type": "uint256"
        }
      ],
      "name": "transferFrom",
      "outputs": [],
      "stateMutability": "nonpayable",
      "type": "function"
    },
    {
      "inputs": [
        {
          "internalType": "address",
          "name": "newOwner",
          "type": "address"
        }
      ],
      "name": "transferOwnership",
      "outputs": [],
      "stateMutability": "nonpayable",
      "type": "function"
    },
    {
      "inputs": [
        {
          "internalType": "uint256",
          "name": "_listingPrice",
          "type": "uint256"
        }
      ],
      "name": "updateListingPrice",
      "outputs": [],
      "stateMutability": "nonpayable",
      "type": "function"
    }
  ],
  "bytecode": "0x608060405266038d7ea4c68000600a553480156200001c57600080fd5b506040518060400160405280600781526020017f4d79204e465473000000000000000000000000000000000000000000000000008152506040518060400160405280600581526020017f4d4e46545300000000000000000000000000000000000000000000000000000081525081600090816200009a91906200041d565b508060019081620000ac91906200041d565b505050620000cf620000c3620000d560201b60201c565b620000dd60201b60201c565b62000504565b600033905090565b6000600760009054906101000a900473ffffffffffffffffffffffffffffffffffffffff16905081600760006101000a81548173ffffffffffffffffffffffffffffffffffffffff021916908373ffffffffffffffffffffffffffffffffffffffff1602179055508173ffffffffffffffffffffffffffffffffffffffff168173ffffffffffffffffffffffffffffffffffffffff167f8be0079c531659141344cd1fd0a4f28419497f9722a3daafe3b4186f6b6457e060405160405180910390a35050565b600081519050919050565b7f4e487b7100000000000000000000000000000000000000000000000000000000600052604160045260246000fd5b7f4e487b7100000000000000000000000000000000000000000000000000000000600052602260045260246000fd5b600060028204905060018216806200022557607f821691505b6020821081036200023b576200023a620001dd565b5b50919050565b60008190508160005260206000209050919050565b60006020601f8301049050919050565b600082821b905092915050565b600060088302620002a57fffffffffffffffffffffffffffffffffffffffffffffffffffffffffffffffff8262000266565b620002b1868362000266565b95508019841693508086168417925050509392505050565b6000819050919050565b6000819050919050565b6000620002fe620002f8620002f284620002c9565b620002d3565b620002c9565b9050919050565b6000819050919050565b6200031a83620002dd565b62000332620003298262000305565b84845462000273565b825550505050565b600090565b620003496200033a565b620003568184846200030f565b505050565b5b818110156200037e57620003726000826200033f565b6001810190506200035c565b5050565b601f821115620003cd57620003978162000241565b620003a28462000256565b81016020851015620003b2578190505b620003ca620003c18562000256565b8301826200035b565b50505b505050565b600082821c905092915050565b6000620003f260001984600802620003d2565b1980831691505092915050565b60006200040d8383620003df565b9150826002028217905092915050565b6200042882620001a3565b67ffffffffffffffff811115620004445762000443620001ae565b5b6200045082546200020c565b6200045d82828562000382565b600060209050601f83116001811462000495576000841562000480578287015190505b6200048c8582620003ff565b865550620004fc565b601f198416620004a58662000241565b60005b82811015620004cf57848901518255600182019150602085019450602081019050620004a8565b86831015620004ef5784890151620004eb601f891682620003df565b8355505b6001600288020188555050505b505050505050565b61452d80620005146000396000f3fe60806040526004361061014b5760003560e01c8063715018a6116100b6578063b88d4fde1161006f578063b88d4fde14610485578063be9af536146104ae578063c87b56dd146104ca578063e219fc7514610507578063e985e9c514610523578063f2fde38b146105605761014b565b8063715018a61461039657806372b3b620146103ad5780638da5cb5b146103dd57806395d89b4114610408578063a22cb46514610433578063ae677aa31461045c5761014b565b806315c9ae101161010857806315c9ae101461027457806323b872dd1461029f57806342842e0e146102c857806345f8fa80146102f15780636352211e1461031c57806370a08231146103595761014b565b806301ffc9a71461015057806306fdde031461018d578063081812fc146101b8578063095ea7b3146101f55780630f08efe01461021e57806312e8558514610249575b600080fd5b34801561015c57600080fd5b5061017760048036038101906101729190612cbd565b610589565b6040516101849190612d05565b60405180910390f35b34801561019957600080fd5b506101a261066b565b6040516101af9190612db0565b60405180910390f35b3480156101c457600080fd5b506101df60048036038101906101da9190612e08565b6106fd565b6040516101ec9190612e76565b60405180910390f35b34801561020157600080fd5b5061021c60048036038101906102179190612ebd565b610743565b005b34801561022a57600080fd5b5061023361085a565b6040516102409190613053565b60405180910390f35b34801561025557600080fd5b5061025e610acb565b60405161026b9190613084565b60405180910390f35b34801561028057600080fd5b50610289610ad5565b6040516102969190613053565b60405180910390f35b3480156102ab57600080fd5b506102c660048036038101906102c1919061309f565b610d3a565b005b3480156102d457600080fd5b506102ef60048036038101906102ea919061309f565b610d9a565b005b3480156102fd57600080fd5b50610306610dba565b6040516103139190613053565b60405180910390f35b34801561032857600080fd5b50610343600480360381019061033e9190612e08565b611011565b6040516103509190612e76565b60405180910390f35b34801561036557600080fd5b50610380600480360381019061037b91906130f2565b6110c2565b60405161038d9190613084565b60405180910390f35b3480156103a257600080fd5b506103ab611179565b005b6103c760048036038101906103c29190613254565b61118d565b6040516103d49190613084565b60405180910390f35b3480156103e957600080fd5b506103f2611256565b6040516103ff9190612e76565b60405180910390f35b34801561041457600080fd5b5061041d611280565b60405161042a9190612db0565b60405180910390f35b34801561043f57600080fd5b5061045a600480360381019061045591906132dc565b611312565b005b34801561046857600080fd5b50610483600480360381019061047e9190612e08565b611328565b005b34801561049157600080fd5b506104ac60048036038101906104a791906133bd565b61133a565b005b6104c860048036038101906104c39190612e08565b61139c565b005b3480156104d657600080fd5b506104f160048036038101906104ec9190612e08565b61175c565b6040516104fe9190612db0565b60405180910390f35b610521600480360381019061051c9190613440565b61186e565b005b34801561052f57600080fd5b5061054a60048036038101906105459190613480565b611aa6565b6040516105579190612d05565b60405180910390f35b34801561056c57600080fd5b50610587600480360381019061058291906130f2565b611b3a565b005b60007f80ac58cd000000000000000000000000000000000000000000000000000000007bffffffffffffffffffffffffffffffffffffffffffffffffffffffff1916827bffffffffffffffffffffffffffffffffffffffffffffffffffffffff1916148061065457507f5b5e139f000000000000000000000000000000000000000000000000000000007bffffffffffffffffffffffffffffffffffffffffffffffffffffffff1916827bffffffffffffffffffffffffffffffffffffffffffffffffffffffff1916145b80610664575061066382611bbd565b5b9050919050565b60606000805461067a906134ef565b80601f01602080910402602001604051908101604052809291908181526020018280546106a6906134ef565b80156106f35780601f106106c8576101008083540402835291602001916106f3565b820191906000526020600020905b8154815290600101906020018083116106d657829003601f168201915b5050505050905090565b600061070882611c27565b6004600083815260200190815260200160002060009054906101000a900473ffffffffffffffffffffffffffffffffffffffff169050919050565b600061074e82611011565b90508073ffffffffffffffffffffffffffffffffffffffff168373ffffffffffffffffffffffffffffffffffffffff16036107be576040517f08c379a00000000000000000000000000000000000000000000000000000000081526004016107b590613592565b60405180910390fd5b8073ffffffffffffffffffffffffffffffffffffffff166107dd611c72565b73ffffffffffffffffffffffffffffffffffffffff16148061080c575061080b81610806611c72565b611aa6565b5b61084b576040517f08c379a000000000000000000000000000000000000000000000000000000000815260040161084290613624565b60405180910390fd5b6108558383611c7a565b505050565b606060006108686008611d33565b905060006108766009611d33565b826108819190613673565b90506000808267ffffffffffffffff8111156108a05761089f613129565b5b6040519080825280602002602001820160405280156108d957816020015b6108c6612bf4565b8152602001906001900390816108be5790505b5090506000600190505b848111610ac05760001515600b600083815260200190815260200160002060040160009054906101000a900460ff16151514801561098257503073ffffffffffffffffffffffffffffffffffffffff16600b600083815260200190815260200160002060020160009054906101000a900473ffffffffffffffffffffffffffffffffffffffff1673ffffffffffffffffffffffffffffffffffffffff16145b15610aad57600b60008281526020019081526020016000206040518060a0016040529081600082015481526020016001820160009054906101000a900473ffffffffffffffffffffffffffffffffffffffff1673ffffffffffffffffffffffffffffffffffffffff1673ffffffffffffffffffffffffffffffffffffffff1681526020016002820160009054906101000a900473ffffffffffffffffffffffffffffffffffffffff1673ffffffffffffffffffffffffffffffffffffffff1673ffffffffffffffffffffffffffffffffffffffff168152602001600382015481526020016004820160009054906101000a900460ff161515151581525050828481518110610a9357610a926136a7565b5b60200260200101819052508280610aa9906136d6565b9350505b8080610ab8906136d6565b9150506108e3565b508094505050505090565b6000600a54905090565b60606000610ae2336110c2565b90506000610af06008611d33565b90506000808367ffffffffffffffff811115610b0f57610b0e613129565b5b604051908082528060200260200182016040528015610b4857816020015b610b35612bf4565b815260200190600190039081610b2d5790505b5090506000600190505b838111610d2f5760011515600b600083815260200190815260200160002060040160009054906101000a900460ff161515148015610bf157503373ffffffffffffffffffffffffffffffffffffffff16600b600083815260200190815260200160002060020160009054906101000a900473ffffffffffffffffffffffffffffffffffffffff1673ffffffffffffffffffffffffffffffffffffffff16145b15610d1c57600b60008281526020019081526020016000206040518060a0016040529081600082015481526020016001820160009054906101000a900473ffffffffffffffffffffffffffffffffffffffff1673ffffffffffffffffffffffffffffffffffffffff1673ffffffffffffffffffffffffffffffffffffffff1681526020016002820160009054906101000a900473ffffffffffffffffffffffffffffffffffffffff1673ffffffffffffffffffffffffffffffffffffffff1673ffffffffffffffffffffffffffffffffffffffff168152602001600382015481526020016004820160009054906101000a900460ff161515151581525050828481518110610d0257610d016136a7565b5b60200260200101819052508280610d18906136d6565b9350505b8080610d27906136d6565b915050610b52565b508094505050505090565b610d4b610d45611c72565b82611d41565b610d8a576040517f08c379a0000000000000000000000000000000000000000000000000000000008152600401610d8190613790565b60405180910390fd5b610d95838383611dd6565b505050565b610db58383836040518060200160405280600081525061133a565b505050565b60606000610dc86008611d33565b90506000808267ffffffffffffffff811115610de757610de6613129565b5b604051908082528060200260200182016040528015610e2057816020015b610e0d612bf4565b815260200190600190039081610e055790505b5090506000600190505b8381116110075760001515600b600083815260200190815260200160002060040160009054906101000a900460ff161515148015610ec957503373ffffffffffffffffffffffffffffffffffffffff16600b600083815260200190815260200160002060010160009054906101000a900473ffffffffffffffffffffffffffffffffffffffff1673ffffffffffffffffffffffffffffffffffffffff16145b15610ff457600b60008281526020019081526020016000206040518060a0016040529081600082015481526020016001820160009054906101000a900473ffffffffffffffffffffffffffffffffffffffff1673ffffffffffffffffffffffffffffffffffffffff1673ffffffffffffffffffffffffffffffffffffffff1681526020016002820160009054906101000a900473ffffffffffffffffffffffffffffffffffffffff1673ffffffffffffffffffffffffffffffffffffffff1673ffffffffffffffffffffffffffffffffffffffff168152602001600382015481526020016004820160009054906101000a900460ff161515151581525050828481518110610fda57610fd96136a7565b5b60200260200101819052508280610ff0906136d6565b9350505b8080610fff906136d6565b915050610e2a565b5080935050505090565b6000806002600084815260200190815260200160002060009054906101000a900473ffffffffffffffffffffffffffffffffffffffff169050600073ffffffffffffffffffffffffffffffffffffffff168173ffffffffffffffffffffffffffffffffffffffff16036110b9576040517f08c379a00000000000000000000000000000000000000000000000000000000081526004016110b0906137fc565b60405180910390fd5b80915050919050565b60008073ffffffffffffffffffffffffffffffffffffffff168273ffffffffffffffffffffffffffffffffffffffff1603611132576040517f08c379a00000000000000000000000000000000000000000000000000000000081526004016111299061388e565b60405180910390fd5b600360008373ffffffffffffffffffffffffffffffffffffffff1673ffffffffffffffffffffffffffffffffffffffff168152602001908152602001600020549050919050565b61118161203c565b61118b60006120ba565b565b6000600a5434146111d3576040517f08c379a00000000000000000000000000000000000000000000000000000000081526004016111ca906138fa565b60405180910390fd5b60008211611216576040517f08c379a000000000000000000000000000000000000000000000000000000000815260040161120d90613966565b60405180910390fd5b6112206008612180565b600061122c6008611d33565b90506112383382612196565b61124281856121b4565b61124c8184612221565b8091505092915050565b6000600760009054906101000a900473ffffffffffffffffffffffffffffffffffffffff16905090565b60606001805461128f906134ef565b80601f01602080910402602001604051908101604052809291908181526020018280546112bb906134ef565b80156113085780601f106112dd57610100808354040283529160200191611308565b820191906000526020600020905b8154815290600101906020018083116112eb57829003601f168201915b5050505050905090565b61132461131d611c72565b838361239d565b5050565b61133061203c565b80600a8190555050565b61134b611345611c72565b83611d41565b61138a576040517f08c379a000000000000000000000000000000000000000000000000000000000815260040161138190613790565b60405180910390fd5b61139684848484612509565b50505050565b6000600b60008381526020019081526020016000206040518060a0016040529081600082015481526020016001820160009054906101000a900473ffffffffffffffffffffffffffffffffffffffff1673ffffffffffffffffffffffffffffffffffffffff1673ffffffffffffffffffffffffffffffffffffffff1681526020016002820160009054906101000a900473ffffffffffffffffffffffffffffffffffffffff1673ffffffffffffffffffffffffffffffffffffffff1673ffffffffffffffffffffffffffffffffffffffff168152602001600382015481526020016004820160009054906101000a900460ff16151515158152505090506000151581608001511515146114e4576040517f08c379a00000000000000000000000000000000000000000000000000000000081526004016114db906139d2565b60405180910390fd5b600073ffffffffffffffffffffffffffffffffffffffff16816020015173ffffffffffffffffffffffffffffffffffffffff1603611557576040517f08c379a000000000000000000000000000000000000000000000000000000000815260040161154e90613a3e565b60405180910390fd5b8060600151341461159d576040517f08c379a000000000000000000000000000000000000000000000000000000000815260040161159490613aaa565b60405180910390fd5b806020015173ffffffffffffffffffffffffffffffffffffffff166108fc349081150290604051600060405180830381858888f193505050501580156115e7573d6000803e3d6000fd5b506000816020019073ffffffffffffffffffffffffffffffffffffffff16908173ffffffffffffffffffffffffffffffffffffffff168152505033816040019073ffffffffffffffffffffffffffffffffffffffff16908173ffffffffffffffffffffffffffffffffffffffff1681525050600181608001901515908115158152505080600b60008481526020019081526020016000206000820151816000015560208201518160010160006101000a81548173ffffffffffffffffffffffffffffffffffffffff021916908373ffffffffffffffffffffffffffffffffffffffff16021790555060408201518160020160006101000a81548173ffffffffffffffffffffffffffffffffffffffff021916908373ffffffffffffffffffffffffffffffffffffffff1602179055506060820151816003015560808201518160040160006101000a81548160ff02191690831515021790555090505061174d6009612180565b611758303384611dd6565b5050565b606061176782611c27565b6000600660008481526020019081526020016000208054611787906134ef565b80601f01602080910402602001604051908101604052809291908181526020018280546117b3906134ef565b80156118005780601f106117d557610100808354040283529160200191611800565b820191906000526020600020905b8154815290600101906020018083116117e357829003601f168201915b505050505090506000611811612565565b90506000815103611826578192505050611869565b60008251111561185b578082604051602001611843929190613b06565b60405160208183030381529060405292505050611869565b6118648461257c565b925050505b919050565b600081116118b1576040517f08c379a00000000000000000000000000000000000000000000000000000000081526004016118a890613966565b60405180910390fd5b600a5434146118f5576040517f08c379a00000000000000000000000000000000000000000000000000000000081526004016118ec906138fa565b60405180910390fd5b3373ffffffffffffffffffffffffffffffffffffffff16600b600084815260200190815260200160002060020160009054906101000a900473ffffffffffffffffffffffffffffffffffffffff1673ffffffffffffffffffffffffffffffffffffffff1614611999576040517f08c379a000000000000000000000000000000000000000000000000000000000815260040161199090613b76565b60405180910390fd5b6000600b600084815260200190815260200160002060040160006101000a81548160ff02191690831515021790555080600b60008481526020019081526020016000206003018190555033600b600084815260200190815260200160002060010160006101000a81548173ffffffffffffffffffffffffffffffffffffffff021916908373ffffffffffffffffffffffffffffffffffffffff16021790555030600b600084815260200190815260200160002060020160006101000a81548173ffffffffffffffffffffffffffffffffffffffff021916908373ffffffffffffffffffffffffffffffffffffffff160217905550611a9760096125e4565b611aa2333084611dd6565b5050565b6000600560008473ffffffffffffffffffffffffffffffffffffffff1673ffffffffffffffffffffffffffffffffffffffff16815260200190815260200160002060008373ffffffffffffffffffffffffffffffffffffffff1673ffffffffffffffffffffffffffffffffffffffff16815260200190815260200160002060009054906101000a900460ff16905092915050565b611b4261203c565b600073ffffffffffffffffffffffffffffffffffffffff168173ffffffffffffffffffffffffffffffffffffffff1603611bb1576040517f08c379a0000000000000000000000000000000000000000000000000000000008152600401611ba890613c08565b60405180910390fd5b611bba816120ba565b50565b60007f01ffc9a7000000000000000000000000000000000000000000000000000000007bffffffffffffffffffffffffffffffffffffffffffffffffffffffff1916827bffffffffffffffffffffffffffffffffffffffffffffffffffffffff1916149050919050565b611c3081612640565b611c6f576040517f08c379a0000000000000000000000000000000000000000000000000000000008152600401611c66906137fc565b60405180910390fd5b50565b600033905090565b816004600083815260200190815260200160002060006101000a81548173ffffffffffffffffffffffffffffffffffffffff021916908373ffffffffffffffffffffffffffffffffffffffff160217905550808273ffffffffffffffffffffffffffffffffffffffff16611ced83611011565b73ffffffffffffffffffffffffffffffffffffffff167f8c5be1e5ebec7d5bd14f71427d1e84f3dd0314c0f7b2291e5b200ac8c7c3b92560405160405180910390a45050565b600081600001549050919050565b600080611d4d83611011565b90508073ffffffffffffffffffffffffffffffffffffffff168473ffffffffffffffffffffffffffffffffffffffff161480611d8f5750611d8e8185611aa6565b5b80611dcd57508373ffffffffffffffffffffffffffffffffffffffff16611db5846106fd565b73ffffffffffffffffffffffffffffffffffffffff16145b91505092915050565b8273ffffffffffffffffffffffffffffffffffffffff16611df682611011565b73ffffffffffffffffffffffffffffffffffffffff1614611e4c576040517f08c379a0000000000000000000000000000000000000000000000000000000008152600401611e4390613c9a565b60405180910390fd5b600073ffffffffffffffffffffffffffffffffffffffff168273ffffffffffffffffffffffffffffffffffffffff1603611ebb576040517f08c379a0000000000000000000000000000000000000000000000000000000008152600401611eb290613d2c565b60405180910390fd5b611ec68383836126ac565b611ed1600082611c7a565b6001600360008573ffffffffffffffffffffffffffffffffffffffff1673ffffffffffffffffffffffffffffffffffffffff1681526020019081526020016000206000828254611f219190613673565b925050819055506001600360008473ffffffffffffffffffffffffffffffffffffffff1673ffffffffffffffffffffffffffffffffffffffff1681526020019081526020016000206000828254611f789190613d4c565b92505081905550816002600083815260200190815260200160002060006101000a81548173ffffffffffffffffffffffffffffffffffffffff021916908373ffffffffffffffffffffffffffffffffffffffff160217905550808273ffffffffffffffffffffffffffffffffffffffff168473ffffffffffffffffffffffffffffffffffffffff167fddf252ad1be2c89b69c2b068fc378daa952ba7f163c4a11628f55a4df523b3ef60405160405180910390a46120378383836126b1565b505050565b612044611c72565b73ffffffffffffffffffffffffffffffffffffffff16612062611256565b73ffffffffffffffffffffffffffffffffffffffff16146120b8576040517f08c379a00000000000000000000000000000000000000000000000000000000081526004016120af90613dcc565b60405180910390fd5b565b6000600760009054906101000a900473ffffffffffffffffffffffffffffffffffffffff16905081600760006101000a81548173ffffffffffffffffffffffffffffffffffffffff021916908373ffffffffffffffffffffffffffffffffffffffff1602179055508173ffffffffffffffffffffffffffffffffffffffff168173ffffffffffffffffffffffffffffffffffffffff167f8be0079c531659141344cd1fd0a4f28419497f9722a3daafe3b4186f6b6457e060405160405180910390a35050565b6001816000016000828254019250508190555050565b6121b08282604051806020016040528060008152506126b6565b5050565b6121bd82612640565b6121fc576040517f08c379a00000000000000000000000000000000000000000000000000000000081526004016121f390613e5e565b60405180910390fd5b8060066000848152602001908152602001600020908161221c919061402a565b505050565b6040518060a001604052808381526020013373ffffffffffffffffffffffffffffffffffffffff1681526020013073ffffffffffffffffffffffffffffffffffffffff16815260200182815260200160001515815250600b60008481526020019081526020016000206000820151816000015560208201518160010160006101000a81548173ffffffffffffffffffffffffffffffffffffffff021916908373ffffffffffffffffffffffffffffffffffffffff16021790555060408201518160020160006101000a81548173ffffffffffffffffffffffffffffffffffffffff021916908373ffffffffffffffffffffffffffffffffffffffff1602179055506060820151816003015560808201518160040160006101000a81548160ff02191690831515021790555090505061235a333084611dd6565b817fb640004f1d14576d0c209e240cad0410e0d8c0c33a09375861fbadae2588a98d333084600060405161239194939291906140fc565b60405180910390a25050565b8173ffffffffffffffffffffffffffffffffffffffff168373ffffffffffffffffffffffffffffffffffffffff160361240b576040517f08c379a00000000000000000000000000000000000000000000000000000000081526004016124029061418d565b60405180910390fd5b80600560008573ffffffffffffffffffffffffffffffffffffffff1673ffffffffffffffffffffffffffffffffffffffff16815260200190815260200160002060008473ffffffffffffffffffffffffffffffffffffffff1673ffffffffffffffffffffffffffffffffffffffff16815260200190815260200160002060006101000a81548160ff0219169083151502179055508173ffffffffffffffffffffffffffffffffffffffff168373ffffffffffffffffffffffffffffffffffffffff167f17307eab39ab6107e8899845ad3d59bd9653f200f220920489ca2b5937696c31836040516124fc9190612d05565b60405180910390a3505050565b612514848484611dd6565b61252084848484612711565b61255f576040517f08c379a00000000000000000000000000000000000000000000000000000000081526004016125569061421f565b60405180910390fd5b50505050565b606060405180602001604052806000815250905090565b606061258782611c27565b6000612591612565565b905060008151116125b157604051806020016040528060008152506125dc565b806125bb84612898565b6040516020016125cc929190613b06565b6040516020818303038152906040525b915050919050565b60008160000154905060008111612630576040517f08c379a00000000000000000000000000000000000000000000000000000000081526004016126279061428b565b60405180910390fd5b6001810382600001819055505050565b60008073ffffffffffffffffffffffffffffffffffffffff166002600084815260200190815260200160002060009054906101000a900473ffffffffffffffffffffffffffffffffffffffff1673ffffffffffffffffffffffffffffffffffffffff1614159050919050565b505050565b505050565b6126c083836129f8565b6126cd6000848484612711565b61270c576040517f08c379a00000000000000000000000000000000000000000000000000000000081526004016127039061421f565b60405180910390fd5b505050565b60006127328473ffffffffffffffffffffffffffffffffffffffff16612bd1565b1561288b578373ffffffffffffffffffffffffffffffffffffffff1663150b7a0261275b611c72565b8786866040518563ffffffff1660e01b815260040161277d9493929190614300565b6020604051808303816000875af19250505080156127b957506040513d601f19601f820116820180604052508101906127b69190614361565b60015b61283b573d80600081146127e9576040519150601f19603f3d011682016040523d82523d6000602084013e6127ee565b606091505b506000815103612833576040517f08c379a000000000000000000000000000000000000000000000000000000000815260040161282a9061421f565b60405180910390fd5b805181602001fd5b63150b7a0260e01b7bffffffffffffffffffffffffffffffffffffffffffffffffffffffff1916817bffffffffffffffffffffffffffffffffffffffffffffffffffffffff191614915050612890565b600190505b949350505050565b6060600082036128df576040518060400160405280600181526020017f300000000000000000000000000000000000000000000000000000000000000081525090506129f3565b600082905060005b600082146129115780806128fa906136d6565b915050600a8261290a91906143bd565b91506128e7565b60008167ffffffffffffffff81111561292d5761292c613129565b5b6040519080825280601f01601f19166020018201604052801561295f5781602001600182028036833780820191505090505b5090505b600085146129ec576001826129789190613673565b9150600a8561298791906143ee565b60306129939190613d4c565b60f81b8183815181106129a9576129a86136a7565b5b60200101907effffffffffffffffffffffffffffffffffffffffffffffffffffffffffffff1916908160001a905350600a856129e591906143bd565b9450612963565b8093505050505b919050565b600073ffffffffffffffffffffffffffffffffffffffff168273ffffffffffffffffffffffffffffffffffffffff1603612a67576040517f08c379a0000000000000000000000000000000000000000000000000000000008152600401612a5e9061446b565b60405180910390fd5b612a7081612640565b15612ab0576040517f08c379a0000000000000000000000000000000000000000000000000000000008152600401612aa7906144d7565b60405180910390fd5b612abc600083836126ac565b6001600360008473ffffffffffffffffffffffffffffffffffffffff1673ffffffffffffffffffffffffffffffffffffffff1681526020019081526020016000206000828254612b0c9190613d4c565b92505081905550816002600083815260200190815260200160002060006101000a81548173ffffffffffffffffffffffffffffffffffffffff021916908373ffffffffffffffffffffffffffffffffffffffff160217905550808273ffffffffffffffffffffffffffffffffffffffff16600073ffffffffffffffffffffffffffffffffffffffff167fddf252ad1be2c89b69c2b068fc378daa952ba7f163c4a11628f55a4df523b3ef60405160405180910390a4612bcd600083836126b1565b5050565b6000808273ffffffffffffffffffffffffffffffffffffffff163b119050919050565b6040518060a0016040528060008152602001600073ffffffffffffffffffffffffffffffffffffffff168152602001600073ffffffffffffffffffffffffffffffffffffffff168152602001600081526020016000151581525090565b6000604051905090565b600080fd5b600080fd5b60007fffffffff0000000000000000000000000000000000000000000000000000000082169050919050565b612c9a81612c65565b8114612ca557600080fd5b50565b600081359050612cb781612c91565b92915050565b600060208284031215612cd357612cd2612c5b565b5b6000612ce184828501612ca8565b91505092915050565b60008115159050919050565b612cff81612cea565b82525050565b6000602082019050612d1a6000830184612cf6565b92915050565b600081519050919050565b600082825260208201905092915050565b60005b83811015612d5a578082015181840152602081019050612d3f565b60008484015250505050565b6000601f19601f8301169050919050565b6000612d8282612d20565b612d8c8185612d2b565b9350612d9c818560208601612d3c565b612da581612d66565b840191505092915050565b60006020820190508181036000830152612dca8184612d77565b905092915050565b6000819050919050565b612de581612dd2565b8114612df057600080fd5b50565b600081359050612e0281612ddc565b92915050565b600060208284031215612e1e57612e1d612c5b565b5b6000612e2c84828501612df3565b91505092915050565b600073ffffffffffffffffffffffffffffffffffffffff82169050919050565b6000612e6082612e35565b9050919050565b612e7081612e55565b82525050565b6000602082019050612e8b6000830184612e67565b92915050565b612e9a81612e55565b8114612ea557600080fd5b50565b600081359050612eb781612e91565b92915050565b60008060408385031215612ed457612ed3612c5b565b5b6000612ee285828601612ea8565b9250506020612ef385828601612df3565b9150509250929050565b600081519050919050565b600082825260208201905092915050565b6000819050602082019050919050565b612f3281612dd2565b82525050565b6000612f4382612e35565b9050919050565b612f5381612f38565b82525050565b612f6281612cea565b82525050565b60a082016000820151612f7e6000850182612f29565b506020820151612f916020850182612f4a565b506040820151612fa46040850182612f4a565b506060820151612fb76060850182612f29565b506080820151612fca6080850182612f59565b50505050565b6000612fdc8383612f68565b60a08301905092915050565b6000602082019050919050565b600061300082612efd565b61300a8185612f08565b935061301583612f19565b8060005b8381101561304657815161302d8882612fd0565b975061303883612fe8565b925050600181019050613019565b5085935050505092915050565b6000602082019050818103600083015261306d8184612ff5565b905092915050565b61307e81612dd2565b82525050565b60006020820190506130996000830184613075565b92915050565b6000806000606084860312156130b8576130b7612c5b565b5b60006130c686828701612ea8565b93505060206130d786828701612ea8565b92505060406130e886828701612df3565b9150509250925092565b60006020828403121561310857613107612c5b565b5b600061311684828501612ea8565b91505092915050565b600080fd5b600080fd5b7f4e487b7100000000000000000000000000000000000000000000000000000000600052604160045260246000fd5b61316182612d66565b810181811067ffffffffffffffff821117156131805761317f613129565b5b80604052505050565b6000613193612c51565b905061319f8282613158565b919050565b600067ffffffffffffffff8211156131bf576131be613129565b5b6131c882612d66565b9050602081019050919050565b82818337600083830152505050565b60006131f76131f2846131a4565b613189565b90508281526020810184848401111561321357613212613124565b5b61321e8482856131d5565b509392505050565b600082601f83011261323b5761323a61311f565b5b813561324b8482602086016131e4565b91505092915050565b6000806040838503121561326b5761326a612c5b565b5b600083013567ffffffffffffffff81111561328957613288612c60565b5b61329585828601613226565b92505060206132a685828601612df3565b9150509250929050565b6132b981612cea565b81146132c457600080fd5b50565b6000813590506132d6816132b0565b92915050565b600080604083850312156132f3576132f2612c5b565b5b600061330185828601612ea8565b9250506020613312858286016132c7565b9150509250929050565b600067ffffffffffffffff82111561333757613336613129565b5b61334082612d66565b9050602081019050919050565b600061336061335b8461331c565b613189565b90508281526020810184848401111561337c5761337b613124565b5b6133878482856131d5565b509392505050565b600082601f8301126133a4576133a361311f565b5b81356133b484826020860161334d565b91505092915050565b600080600080608085870312156133d7576133d6612c5b565b5b60006133e587828801612ea8565b94505060206133f687828801612ea8565b935050604061340787828801612df3565b925050606085013567ffffffffffffffff81111561342857613427612c60565b5b6134348782880161338f565b91505092959194509250565b6000806040838503121561345757613456612c5b565b5b600061346585828601612df3565b925050602061347685828601612df3565b9150509250929050565b6000806040838503121561349757613496612c5b565b5b60006134a585828601612ea8565b92505060206134b685828601612ea8565b9150509250929050565b7f4e487b7100000000000000000000000000000000000000000000000000000000600052602260045260246000fd5b6000600282049050600182168061350757607f821691505b60208210810361351a576135196134c0565b5b50919050565b7f4552433732313a20617070726f76616c20746f2063757272656e74206f776e6560008201527f7200000000000000000000000000000000000000000000000000000000000000602082015250565b600061357c602183612d2b565b915061358782613520565b604082019050919050565b600060208201905081810360008301526135ab8161356f565b9050919050565b7f4552433732313a20617070726f76652063616c6c6572206973206e6f7420746f60008201527f6b656e206f776e6572206e6f7220617070726f76656420666f7220616c6c0000602082015250565b600061360e603e83612d2b565b9150613619826135b2565b604082019050919050565b6000602082019050818103600083015261363d81613601565b9050919050565b7f4e487b7100000000000000000000000000000000000000000000000000000000600052601160045260246000fd5b600061367e82612dd2565b915061368983612dd2565b92508282039050818111156136a1576136a0613644565b5b92915050565b7f4e487b7100000000000000000000000000000000000000000000000000000000600052603260045260246000fd5b60006136e182612dd2565b91507fffffffffffffffffffffffffffffffffffffffffffffffffffffffffffffffff820361371357613712613644565b5b600182019050919050565b7f4552433732313a2063616c6c6572206973206e6f7420746f6b656e206f776e6560008201527f72206e6f7220617070726f766564000000000000000000000000000000000000602082015250565b600061377a602e83612d2b565b91506137858261371e565b604082019050919050565b600060208201905081810360008301526137a98161376d565b9050919050565b7f4552433732313a20696e76616c696420746f6b656e2049440000000000000000600082015250565b60006137e6601883612d2b565b91506137f1826137b0565b602082019050919050565b60006020820190508181036000830152613815816137d9565b9050919050565b7f4552433732313a2061646472657373207a65726f206973206e6f74206120766160008201527f6c6964206f776e65720000000000000000000000000000000000000000000000602082015250565b6000613878602983612d2b565b91506138838261381c565b604082019050919050565b600060208201905081810360008301526138a78161386b565b9050919050565b7f77726f6e67206c697374696e6720707269636520616d6f756e74210000000000600082015250565b60006138e4601b83612d2b565b91506138ef826138ae565b602082019050919050565b60006020820190508181036000830152613913816138d7565b9050919050565b7f70726963652073686f756c642062652067726561746572207468616e20302100600082015250565b6000613950601f83612d2b565b915061395b8261391a565b602082019050919050565b6000602082019050818103600083015261397f81613943565b9050919050565b7f6974656d20736f6c642100000000000000000000000000000000000000000000600082015250565b60006139bc600a83612d2b565b91506139c782613986565b602082019050919050565b600060208201905081810360008301526139eb816139af565b9050919050565b7f746f6b656e20646f6573206e6f74206578697374210000000000000000000000600082015250565b6000613a28601583612d2b565b9150613a33826139f2565b602082019050919050565b60006020820190508181036000830152613a5781613a1b565b9050919050565b7f77726f6720746f6b656e20707269636521000000000000000000000000000000600082015250565b6000613a94601183612d2b565b9150613a9f82613a5e565b602082019050919050565b60006020820190508181036000830152613ac381613a87565b9050919050565b600081905092915050565b6000613ae082612d20565b613aea8185613aca565b9350613afa818560208601612d3c565b80840191505092915050565b6000613b128285613ad5565b9150613b1e8284613ad5565b91508190509392505050565b7f6f6e6c79206f776e65722063616e20726573656c6c2074686520746f6b656e00600082015250565b6000613b60601f83612d2b565b9150613b6b82613b2a565b602082019050919050565b60006020820190508181036000830152613b8f81613b53565b9050919050565b7f4f776e61626c653a206e6577206f776e657220697320746865207a65726f206160008201527f6464726573730000000000000000000000000000000000000000000000000000602082015250565b6000613bf2602683612d2b565b9150613bfd82613b96565b604082019050919050565b60006020820190508181036000830152613c2181613be5565b9050919050565b7f4552433732313a207472616e736665722066726f6d20696e636f72726563742060008201527f6f776e6572000000000000000000000000000000000000000000000000000000602082015250565b6000613c84602583612d2b565b9150613c8f82613c28565b604082019050919050565b60006020820190508181036000830152613cb381613c77565b9050919050565b7f4552433732313a207472616e7366657220746f20746865207a65726f2061646460008201527f7265737300000000000000000000000000000000000000000000000000000000602082015250565b6000613d16602483612d2b565b9150613d2182613cba565b604082019050919050565b60006020820190508181036000830152613d4581613d09565b9050919050565b6000613d5782612dd2565b9150613d6283612dd2565b9250828201905080821115613d7a57613d79613644565b5b92915050565b7f4f776e61626c653a2063616c6c6572206973206e6f7420746865206f776e6572600082015250565b6000613db6602083612d2b565b9150613dc182613d80565b602082019050919050565b60006020820190508181036000830152613de581613da9565b9050919050565b7f45524337323155524953746f726167653a2055524920736574206f66206e6f6e60008201527f6578697374656e7420746f6b656e000000000000000000000000000000000000602082015250565b6000613e48602e83612d2b565b9150613e5382613dec565b604082019050919050565b60006020820190508181036000830152613e7781613e3b565b9050919050565b60008190508160005260206000209050919050565b60006020601f8301049050919050565b600082821b905092915050565b600060088302613ee07fffffffffffffffffffffffffffffffffffffffffffffffffffffffffffffffff82613ea3565b613eea8683613ea3565b95508019841693508086168417925050509392505050565b6000819050919050565b6000613f27613f22613f1d84612dd2565b613f02565b612dd2565b9050919050565b6000819050919050565b613f4183613f0c565b613f55613f4d82613f2e565b848454613eb0565b825550505050565b600090565b613f6a613f5d565b613f75818484613f38565b505050565b5b81811015613f9957613f8e600082613f62565b600181019050613f7b565b5050565b601f821115613fde57613faf81613e7e565b613fb884613e93565b81016020851015613fc7578190505b613fdb613fd385613e93565b830182613f7a565b50505b505050565b600082821c905092915050565b600061400160001984600802613fe3565b1980831691505092915050565b600061401a8383613ff0565b9150826002028217905092915050565b61403382612d20565b67ffffffffffffffff81111561404c5761404b613129565b5b61405682546134ef565b614061828285613f9d565b600060209050601f8311600181146140945760008415614082578287015190505b61408c858261400e565b8655506140f4565b601f1984166140a286613e7e565b60005b828110156140ca578489015182556001820191506020850194506020810190506140a5565b868310156140e757848901516140e3601f891682613ff0565b8355505b6001600288020188555050505b505050505050565b60006080820190506141116000830187612e67565b61411e6020830186612e67565b61412b6040830185613075565b6141386060830184612cf6565b95945050505050565b7f4552433732313a20617070726f766520746f2063616c6c657200000000000000600082015250565b6000614177601983612d2b565b915061418282614141565b602082019050919050565b600060208201905081810360008301526141a68161416a565b9050919050565b7f4552433732313a207472616e7366657220746f206e6f6e20455243373231526560008201527f63656976657220696d706c656d656e7465720000000000000000000000000000602082015250565b6000614209603283612d2b565b9150614214826141ad565b604082019050919050565b60006020820190508181036000830152614238816141fc565b9050919050565b7f436f756e7465723a2064656372656d656e74206f766572666c6f770000000000600082015250565b6000614275601b83612d2b565b91506142808261423f565b602082019050919050565b600060208201905081810360008301526142a481614268565b9050919050565b600081519050919050565b600082825260208201905092915050565b60006142d2826142ab565b6142dc81856142b6565b93506142ec818560208601612d3c565b6142f581612d66565b840191505092915050565b60006080820190506143156000830187612e67565b6143226020830186612e67565b61432f6040830185613075565b818103606083015261434181846142c7565b905095945050505050565b60008151905061435b81612c91565b92915050565b60006020828403121561437757614376612c5b565b5b60006143858482850161434c565b91505092915050565b7f4e487b7100000000000000000000000000000000000000000000000000000000600052601260045260246000fd5b60006143c882612dd2565b91506143d383612dd2565b9250826143e3576143e261438e565b5b828204905092915050565b60006143f982612dd2565b915061440483612dd2565b9250826144145761441361438e565b5b828206905092915050565b7f4552433732313a206d696e7420746f20746865207a65726f2061646472657373600082015250565b6000614455602083612d2b565b91506144608261441f565b602082019050919050565b6000602082019050818103600083015261448481614448565b9050919050565b7f4552433732313a20746f6b656e20616c7265616479206d696e74656400000000600082015250565b60006144c1601c83612d2b565b91506144cc8261448b565b602082019050919050565b600060208201905081810360008301526144f0816144b4565b905091905056fea264697066735822122041e56e04fc862684fd1eb5e31554b7900b8897514ef9ca0cf8dfe4fa200d19fd64736f6c63430008110033",
  "linkReferences": {},
  "deployedLinkReferences": {}
}